{
  "_format": "hh-sol-artifact-1",
  "contractName": "MerkleAirdrop",
  "sourceName": "contracts/MerkleAirdrop.sol",
  "abi": [
    {
      "inputs": [
        {
          "internalType": "address",
          "name": "_tokenAddress",
          "type": "address"
        },
        {
          "internalType": "bytes32",
          "name": "_merkleRoot",
          "type": "bytes32"
        }
      ],
      "stateMutability": "nonpayable",
      "type": "constructor"
    },
    {
      "inputs": [],
      "name": "AddressZeroDenied",
      "type": "error"
    },
    {
      "inputs": [],
      "name": "OnlyOwnerCanDoThis",
      "type": "error"
    },
    {
      "inputs": [],
      "name": "YouAlreadyClaimed",
      "type": "error"
    },
    {
      "inputs": [],
      "name": "YouAreNotEligibleForAirdrop",
      "type": "error"
    },
    {
      "inputs": [],
      "name": "YouCantClaimForSomeoneElse",
      "type": "error"
    },
    {
      "anonymous": false,
      "inputs": [
        {
          "indexed": false,
          "internalType": "address",
          "name": "addrs",
          "type": "address"
        },
        {
          "indexed": false,
          "internalType": "uint256",
          "name": "amount",
          "type": "uint256"
        }
      ],
      "name": "AirdropClaimedSuccessFully",
      "type": "event"
    },
    {
      "anonymous": false,
      "inputs": [],
      "name": "MerkleRootIsUpdated",
      "type": "event"
    },
    {
      "inputs": [
        {
          "internalType": "address",
          "name": "userWalletAddress",
          "type": "address"
        },
        {
          "internalType": "uint256",
          "name": "amountToClaim",
          "type": "uint256"
        },
        {
          "internalType": "bytes32[]",
          "name": "userMerkleProof",
          "type": "bytes32[]"
        }
      ],
      "name": "claimAirdrop",
      "outputs": [],
      "stateMutability": "nonpayable",
      "type": "function"
    },
    {
      "inputs": [
        {
          "internalType": "bytes32[]",
          "name": "_merkleProof",
          "type": "bytes32[]"
        },
        {
          "internalType": "uint256",
          "name": "_amount",
          "type": "uint256"
        }
      ],
      "name": "confirmMerkleProofInHash",
      "outputs": [
        {
          "internalType": "bool",
          "name": "",
          "type": "bool"
        }
      ],
      "stateMutability": "view",
      "type": "function"
    },
    {
      "inputs": [],
      "name": "owner",
      "outputs": [
        {
          "internalType": "address",
          "name": "",
          "type": "address"
        }
      ],
      "stateMutability": "view",
      "type": "function"
    },
    {
      "inputs": [],
      "name": "tokenAddress",
      "outputs": [
        {
          "internalType": "address",
          "name": "",
          "type": "address"
        }
      ],
      "stateMutability": "view",
      "type": "function"
    },
    {
      "inputs": [
        {
          "internalType": "bytes32",
          "name": "_merkleRoot",
          "type": "bytes32"
        }
      ],
      "name": "updateMerkleRoot",
      "outputs": [],
      "stateMutability": "nonpayable",
      "type": "function"
    }
  ],
  "bytecode": "0x608060405234801561001057600080fd5b50604051610c1b380380610c1b8339818101604052810190610032919061015a565b816000806101000a81548173ffffffffffffffffffffffffffffffffffffffff021916908373ffffffffffffffffffffffffffffffffffffffff1602179055508060028190555033600160006101000a81548173ffffffffffffffffffffffffffffffffffffffff021916908373ffffffffffffffffffffffffffffffffffffffff160217905550505061019a565b600080fd5b600073ffffffffffffffffffffffffffffffffffffffff82169050919050565b60006100f1826100c6565b9050919050565b610101816100e6565b811461010c57600080fd5b50565b60008151905061011e816100f8565b92915050565b6000819050919050565b61013781610124565b811461014257600080fd5b50565b6000815190506101548161012e565b92915050565b60008060408385031215610171576101706100c1565b5b600061017f8582860161010f565b925050602061019085828601610145565b9150509250929050565b610a72806101a96000396000f3fe608060405234801561001057600080fd5b50600436106100575760003560e01c806301a566c71461005c5780634783f0ef1461008c5780638da5cb5b146100a85780639d76ea58146100c6578063a0e848c7146100e4575b600080fd5b6100766004803603810190610071919061074b565b610100565b60405161008391906107c6565b60405180910390f35b6100a660048036038101906100a19190610817565b6101c5565b005b6100b06102e8565b6040516100bd9190610885565b60405180910390f35b6100ce61030e565b6040516100db9190610885565b60405180910390f35b6100fe60048036038101906100f991906108cc565b610332565b005b600080338360405160200161011692919061094f565b6040516020818303038152906040528051906020012060405160200161013c9190610999565b60405160208183030381529060405280519060200120905060006101a4868680806020026020016040519081016040528093929190818152602001838360200280828437600081840152601f19601f82011690508083019250505050505050600254846105fd565b905080156101b7576001925050506101be565b6000925050505b9392505050565b600073ffffffffffffffffffffffffffffffffffffffff163373ffffffffffffffffffffffffffffffffffffffff161461022b576040517f56b3314a00000000000000000000000000000000000000000000000000000000815260040160405180910390fd5b600160009054906101000a900473ffffffffffffffffffffffffffffffffffffffff1673ffffffffffffffffffffffffffffffffffffffff163373ffffffffffffffffffffffffffffffffffffffff16146102b2576040517f9969c69400000000000000000000000000000000000000000000000000000000815260040160405180910390fd5b806002819055507f38dbed1ef6aa5cea6d4a86122d8a74c927ad85802b7992ab0533e0321dd8469260405160405180910390a150565b600160009054906101000a900473ffffffffffffffffffffffffffffffffffffffff1681565b60008054906101000a900473ffffffffffffffffffffffffffffffffffffffff1681565b600073ffffffffffffffffffffffffffffffffffffffff163373ffffffffffffffffffffffffffffffffffffffff1603610398576040517f56b3314a00000000000000000000000000000000000000000000000000000000815260040160405180910390fd5b8373ffffffffffffffffffffffffffffffffffffffff163373ffffffffffffffffffffffffffffffffffffffff16146103fd576040517fd704b5e900000000000000000000000000000000000000000000000000000000815260040160405180910390fd5b60011515600360003373ffffffffffffffffffffffffffffffffffffffff1673ffffffffffffffffffffffffffffffffffffffff16815260200190815260200160002060009054906101000a900460ff16151503610487576040517fd2f3f39600000000000000000000000000000000000000000000000000000000815260040160405180910390fd5b610492828285610100565b6104c7576040517e47211600000000000000000000000000000000000000000000000000000000815260040160405180910390fd5b60008054906101000a900473ffffffffffffffffffffffffffffffffffffffff1673ffffffffffffffffffffffffffffffffffffffff1663a9059cbb85856040518363ffffffff1660e01b815260040161052292919061094f565b6020604051808303816000875af1158015610541573d6000803e3d6000fd5b505050506040513d601f19601f8201168201806040525081019061056591906109e0565b506001600360003373ffffffffffffffffffffffffffffffffffffffff1673ffffffffffffffffffffffffffffffffffffffff16815260200190815260200160002060006101000a81548160ff0219169083151502179055507fddaebc431e38bce3b9c1017bc729090d133d68b80fc08a5a773a6b1f3345039c84846040516105ef92919061094f565b60405180910390a150505050565b60008261060a8584610614565b1490509392505050565b60008082905060005b84518110156106595761064a8286838151811061063d5761063c610a0d565b5b6020026020010151610664565b9150808060010191505061061d565b508091505092915050565b600081831061067c57610677828461068f565b610687565b610686838361068f565b5b905092915050565b600082600052816020526040600020905092915050565b600080fd5b600080fd5b600080fd5b600080fd5b600080fd5b60008083601f8401126106d5576106d46106b0565b5b8235905067ffffffffffffffff8111156106f2576106f16106b5565b5b60208301915083602082028301111561070e5761070d6106ba565b5b9250929050565b6000819050919050565b61072881610715565b811461073357600080fd5b50565b6000813590506107458161071f565b92915050565b600080600060408486031215610764576107636106a6565b5b600084013567ffffffffffffffff811115610782576107816106ab565b5b61078e868287016106bf565b935093505060206107a186828701610736565b9150509250925092565b60008115159050919050565b6107c0816107ab565b82525050565b60006020820190506107db60008301846107b7565b92915050565b6000819050919050565b6107f4816107e1565b81146107ff57600080fd5b50565b600081359050610811816107eb565b92915050565b60006020828403121561082d5761082c6106a6565b5b600061083b84828501610802565b91505092915050565b600073ffffffffffffffffffffffffffffffffffffffff82169050919050565b600061086f82610844565b9050919050565b61087f81610864565b82525050565b600060208201905061089a6000830184610876565b92915050565b6108a981610864565b81146108b457600080fd5b50565b6000813590506108c6816108a0565b92915050565b600080600080606085870312156108e6576108e56106a6565b5b60006108f4878288016108b7565b945050602061090587828801610736565b935050604085013567ffffffffffffffff811115610926576109256106ab565b5b610932878288016106bf565b925092505092959194509250565b61094981610715565b82525050565b60006040820190506109646000830185610876565b6109716020830184610940565b9392505050565b6000819050919050565b61099361098e826107e1565b610978565b82525050565b60006109a58284610982565b60208201915081905092915050565b6109bd816107ab565b81146109c857600080fd5b50565b6000815190506109da816109b4565b92915050565b6000602082840312156109f6576109f56106a6565b5b6000610a04848285016109cb565b91505092915050565b7f4e487b7100000000000000000000000000000000000000000000000000000000600052603260045260246000fdfea2646970667358221220799d6df43b2a64c7998b737b8d3bfe1d4ea17c340c2b76d7c144a64e1f1b405e64736f6c63430008180033",
  "linkReferences": {},
  "deployedLinkReferences": {}
}